:100FE600FEFDFBF7EFDFBF7F010204081020408003
:100FF6003F065B4F666D7D077F6F000024BD2400B2
:10100600000000243CA53C240000003C00BD003C40
:101016000000182424100824241832230040E6E98E
:0E102600493230483D7F7F3D4830C896649681
:10103400014E011F10040000000000000000000029
:10104400000000000000000000000000000000009C
:10105400000000001F2F000000000000000000003E
:10106400000000000000000000000000000000007C
:0C1074000000000000010D00020E9C4076
:100B9C00E54E14FFEFD3940074809480401B740FC7
:100BAC002FF8E6FE74102FF8A606742E2FF8E6FE2A
:100BBC00742F2FF8A6061F80DBE50D14602C146033
:100BCC004F14606B24036003020C5FE52F64077005
:100BDC0015AF0AEF6403600EEF64047004F52F8008
:100BEC001CE4F52F806D052F8069E52F701EAF0A70
:100BFC00EF64036017EF6404700D752F07E5102484
:100C0C00045407F510804C752F078047152F80432F
:100C1C00E51064077015AF0AEF6403600EEF64040F
:100C2C007004F510801CE4F510802805108024E574
:100C3C0010701EAF0AEF64036017EF6404700D753B
:100C4C001007E52F24045407F52F80077510078033
:0F0C5C00021510120A7CE50A64016003120D856F
:010C6B002266
:10124300AF0DEF60046401700C20B103750D022033
:10125300B003750D03AF0DEF64026005EF64037017
:0E1263000C20B203E4F50D20B303750D01223B
:1011D900E4F55AE55AC3954E5030742F255AF8E66E
:1011E900900FEE93FF1212147410255AF8E612129A
:1011F900A67580FFE509900FEE93FF121214E5081A
:0A1209001212A67580FF055A80C975
:0112130022B8
:0C12CB00754E01751004752F02AF2F2224
:10115E001210817C007D081209238D081210817CEB
:10116E00007D081209238D09E4F55AE55AC3954E00
:10117E0050197410255AF8E6B5080C742F255AF834
:0D118E00E6B5090302115E055A80E0AF09C5
:01119B002231
:08119C007D327C007F647E00BF
:0811A4008E518F528C538D54C3
:1011AC00E4F555F556C3E5569554E5559553501C45
:1011BC00D2A5AF52AE511212B0C2A5AF52AE51125F
:0C11CC0012B00556E55670DD055580D9BF
:0111D80022F4
:100F9200784F7C007D007BFF7A1079307E007F04E1
:100FA2001208D0E4F554C3E554940574809480503B
:100FB20032E4F553C3E5539432748094805020D2C6
:100FC200A5744F2554F8E6FF7E001212B0C2A57434
:100FD2004F2554F8E6FF7E001212B0055380D50566
:030FE2005480C375
:010FE50022E9
:100A7C00E51065086003020B9BE52F650960030216
:100A8C000B9B12115E12119C740F254EF8E6FF742D
:100A9C0010254EF8A607742E254EF8E6FF742F2568
:100AAC004EF8A607054EE50A24FE60641470030296
:100ABC000B3D147003020B5A24036003020B7905DF
:100ACC000BE54E75F00384E5F07017D3E50F942019
:100ADC00E50E944E400C7430250FF50F74F8350E5E
:100AEC00F50EE50B64056003020B797F887E13120B
:100AFC0012B0120F3A1210CEAF0A120EDF050AE432
:100B0C00F50B750E9C750F401212431211D9805DB6
:100B1C00050BE54E75F00384E5F07051D3E50F94A9
:100B2C0010E50E942740467448250FF50F74F48099
:100B3C0038050BE54E54017034D3E50F9458E50E8F
:100B4C00941B40297460250FF50F74F0801B050B66
:100B5C00E54E54017017D3E50F9458E50E941B40E5
:100B6C000C7460250FF50F74F0350EF50EE50B6463
:100B7C0008701C120F3A120F927BFF7A1079281210
:100B8C000E767FC87E001212B01210CE12128C227A
:100D850075500A754F04E54FC3954E5039741025BB
:100D95004FF8E66510702B742F254FF8E6652F7018
:100DA5002130B11B120F3AAF501550EF600C1211E4
:100DB5009C7F107E271212B080ED1210CE80E212B9
:100DC500128C054F80C0E50A64037036D3E5109494
:100DD5000774809480500AE52F94077480948040AE
:100DE5002130B11B120F3AAF501550EF600C1211A4
:100DF5009C7FE87E031212B080ED1210CE80E212C5
:020E0500128C4D
:010E070022C8
:10128C00D2B0D2B1D2B3D2B2E4F50B750E9C750FBD
:0A129C0040120E081212BB02115E90
:1010CE0030B146850B52E4F551C3E551940374805B
:1010DE00948050ECE55275F00A8485F053E5512466
:1010EE0002FFF87401088002C333D8FCF5A0E55363
:1010FE00900FF693F5807FC87E001212B0E5527500
:0C110E00F00A84F552055180C00212CB9B
:060E76008B5A8A5B895CC7
:100E7C0030B15FE4F55FF560C3E5609432E55F94F3
:100E8C000050EDE4F55DF55EE4FF12121474E625F6
:100E9C005EF582740F355DF583E493F580AB5AAA49
:100EAC005BA95C855E82855D831208F6FF121214C5
:100EBC007F027E001212B0055EE55E7002055DC316
:100ECC009408E55D940040C00560E56070AA055F7C
:020EDC0080A6EE
:010EDE0022F1
:020EDF008F5D25
:100EE100E4F55FC3E55F943274809480504AE4F581
:100EF1005EC3E55E9408748094805038E4FF12125A
:100F010014E55E900FE693F580E55D75F008A42485
:100F110000F582E43410F583E582255EF582E4353F
:100F210083F583E493FF1212147F027E001212B044
:080F3100055E80BD055F80AB89
:010F39002295
:100E0800E4F55CF55BF55A30B03FAF5A120EDF20BF
:100E1800B31CE55B7015055AD3E55A9403748094A6
:100E2800804003E4F55A755B018003E4F55B20B26A
:100E3800D6E55C700F155AE55AF47003755A0375B8
:100E48005C0180C3E4F55C80BEE55A14600F146051
:100E58001114601324037015750A01800D750A02B8
:0D0E68008008750A038003750A04120F3A12
:010E7500225A
:100F3A007561007562FFE4F55DF55EE4FF12121457
:100F4A00E561C313F561E56213F562F580E4F55FC7
:100F5A00F5607F181212147F027E001212B005602B
:100F6A00E5607002055FC39414E55F940040E37F77
:100F7A00107E271212B0055EE55E7002055DC3940D
:070F8A001EE55D940040B478
:010F9100223D
:0A12A600900FE693F5807F507E0064
:0B12B000EF1FAC0670011E4C70F62210
:1012BB00758901758C3C758AB0D2AFD2A9D28C22BC
:03000B00020C6C78
:100C6C00C0E0C0F0C083C082C0D075D000C000C04E
:100C7C0001C002C003C004C005C006C007AE0EAF61
:100C8C000FAB07AA06E4C39BFFE49AFE7401940021
:100C9C00FDE49400FCE4FB7A01F9F812111A8F8C34
:100CAC00AE0EAF0FAB07AA06E4C39BFFE49AFE742B
:100CBC00019400FDE49400FCE4FB7A01F9F81211B4
:100CCC001AAF038F8D050CE50C64147005F50C122E
:100CDC000B9CD007D006D005D004D003D002D00195
:0D0CEC00D000D0D0D082D083D0F0D0E03244
:10121400C2B6C2B5E4FEEEC394087480948050183C
:10122400EFC4131313540124FF92B4EF25E0FFD24B
:0E123400B60000C2B60E80DED2B50000C2B514
:011242002289
:101271007BFF7A107920120E767FD07E071212B092
:0B12810012128C1212431211D980F8D7
:03000000020CF9F6
:0C0CF900787FE4F6D8FD758166020D409E
:10080000E709F608DFFA8046E709F208DFFA803EDA
:1008100088828C83E709F0A3DFFA8032E309F608C7
:10082000DFFA8078E309F208DFFA807088828C832F
:10083000E309F0A3DFFA806489828A83E0A3F608E3
:10084000DFFA805889828A83E0A3F208DFFA804CBD
:1008500080D280FA80C680D4806980F28033801094
:1008600080A680EA809A80A880DA80E280CA8033FD
:1008700089828A83ECFAE493A3C8C582C8CCC58375
:10088000CCF0A3C8C582C8CCC583CCDFE9DEE78045
:100890000D89828A83E493A3F608DFF9ECFAA9F0C4
:1008A000EDFB2289828A83ECFAE0A3C8C582C8CC1A
:1008B000C583CCF0A3C8C582C8CCC583CCDFEADE33
:1008C000E880DB89828A83E493A3F208DFF980CC95
:1008D00088F0EF60010E4E60C388F0ED2402B4048E
:1008E0000050B9F582EB2402B4040050AF23234535
:0608F00082239008507302
:1008F600BB010CE58229F582E5833AF583E02250B7
:1009060006E92582F8E622BBFE06E92582F8E22200
:0D091600E58229F582E5833AF583E493221A
:10092300C2D5EC30E709B2D5E4C39DFDE49CFCEEEF
:1009330030E715B2D5E4C39FFFE49EFE120959C305
:10094300E49DFDE49CFC800312095930D507C3E400
:060953009FFFE49EFE225E
:10111A00C2D5E830E70FB2D5E4C39BFBE49AFAE400
:10112A0099F9E498F8EC30E717B2D5121150120980
:10113A00EAE4C39BFBE49AFAE499F9E498F8800399
:10114A001209EA30D50DE4C39FFFE49EFEE49DFD3B
:04115A00E49CFC22F3
:10108100AC63AD64AE65AF667810EC4D4E4F700445
:101091007CA57DA5C3EC13FCED13FDEE13FEEF1350
:1010A100FF5010EC64CCFCED644CFDEE644EFEEFA1
:1010B10064CEFFD8DF8C638D648E658F66EE547FBE
:0D10C100FE228E638F6474A5F565F566222E
:100D0500021271E493A3F8E493A34003F68001F281
:100D150008DFF48029E493A3F85407240CC8C333EF
:100D2500C4540F4420C8834004F456800146F6DFBE
:100D3500E4800B0102040810204080901034E47E0A
:100D4500019360BCA3FF543F30E509541FFEE493B3
:100D5500A360010ECF54C025E060A840B8E493A37A
:100D6500FAE493A3F8E493A3C8C582C8CAC583CAA5
:100D7500F0A3C8C582C8CAC583CADFE9DEE780BE5D
:01108000006F
:10095900BC000BBE0029EF8DF084FFADF022E4CC82
:10096900F875F008EF2FFFEE33FEEC33FCEE9DEC4B
:10097900984005FCEE9DFE0FD5F0E9E4CEFD22ED91
:10098900F8F5F0EE8420D21CFEADF075F008EF2FDB
:10099900FFED33FD4007985006D5F0F222C398FDCC
:0509A9000FD5F0EA2269
:1009AE0075F008758200EF2FFFEE33FECD33CDCC00
:1009BE0033CCC58233C5829BED9AEC99E582984083
:1009CE000CF582EE9BFEED9AFDEC99FC0FD5F0D660
:1009DE00E4CEFBE4CDFAE4CCF9A88222B800C1B98A
:1009EE000059BA002DEC8BF084CFCECDFCE5F0CBC8
:1009FE00F97818EF2FFFEE33FEED33FDEC33FCEB01
:100A0E0033FB10D703994004EB99FB0FD8E5E4F9BB
:100A1E00FA227818EF2FFFEE33FEED33FDEC33FCA8
:100A2E00C933C910D7059BE99A4007EC9BFCE99A9C
:100A3E00F90FD8E0E4C9FAE4CCFB2275F010EF2FE1
:100A4E00FFEE33FEED33FDCC33CCC833C810D707E1
:100A5E009BEC9AE899400AED9BFDEC9AFCE899F81C
:0E0A6E000FD5F0DAE4CDFBE4CCFAE4C8F922AF
:00000001FF
